:100000000C947D000C94A5000C94A5000C94A50004
:100010000C94A5000C94A5000C94A5000C94A500CC
:100020000C94A5000C94A5000C94A5000C94A500BC
:100030000C94A5000C94A5000C94A5000C94A500AC
:100040000C948C0F0C94A5000C94FC0F0C94D60F00
:100050000C94A5000C94A5000C94A5000C94A5008C
:100060000C942E100C94A500000000002300260024
:100070002900450000820000400020638253630095
:10008000010800060400011F1C1F1E1F1E1F1F1E4B
:100090001F1E31323A32393A31360044656320321C
:1000A0003520323032340000000000240027002ABE
:1000B0000000000000250028002B000404040404B4
:1000C0000404040202020202020303030303030105
:1000D00002040810204080010204081020010204DC
:1000E00008102000000008000201000003040700BF
:1000F00000000000000000005A1111241FBECFEFC5
:10010000D8E0DEBFCDBF26E0A2E6B2E001C01D927E
:10011000A432B207E1F712E0A0E0B1E0ECE0F2E3D4
:1001200002C005900D92A236B107D9F710E0CDE7D5
:10013000D0E004C02197FE010E942215CC37D107E0
:10014000C9F70E9493110C9404190C940000CF93EA
:10015000DF932091FF042223C1F0FC0120812223A0
:10016000A1F0CFEFD4E0ABEFB4E09C012C5F3F4FA8
:10017000899141919D918427892339F4E217F307EE
:10018000B9F781E0DF91CF91089580E0FBCF833014
:1001900081F028F4813099F08230A9F008958730F9
:1001A000A9F08830C9F08430B1F4809180008F7D4F
:1001B00003C0809180008F7780938000089584B57C
:1001C0008F7784BD089584B58F7DFBCF8091B0007B
:1001D0008F778093B00008958091B0008F7DF9CF24
:1001E0001F93CF93DF93282F30E0F901ED51FF4F9C
:1001F0008491F901E153FF4FD491F901E554FF4F88
:10020000C491CC23A9F0162F81110E94C700EC2FB6
:10021000F0E0EE0FFF1FEF54FF4FA591B4918FB7A1
:10022000F894EC91111108C0D095DE23DC938FBFB8
:10023000DF91CF911F910895DE2BF8CFCF93DF93FD
:1002400090E0FC01E153FF4F249185549F4FFC0146
:1002500084918823C9F090E0880F991FFC01E9552B
:10026000FF4FA591B491FC01EF54FF4FC591D4917C
:1002700061110DC09FB7F8948C91209582238C93C7
:100280008881282328839FBFDF91CF910895623012
:1002900051F49FB7F8943C91822F809583238C93DF
:1002A000E8812E2BEFCF8FB7F894EC912E2B2C9367
:1002B0008FBFEACF3FB7F8948091F7049091F8048C
:1002C000A091F904B091FA0426B5A89B05C02F3F70
:1002D00019F00196A11DB11D3FBFBA2FA92F982F6C
:1002E0008827BC01CD01620F711D811D911D42E067
:1002F000660F771F881F991F4A95D1F708952FB76A
:10030000F8946091F3047091F4048091F504909155
:10031000F6042FBF089508950895AF92BF92CF922B
:10032000DF92EF92FF920F931F93CF93DF936C01B5
:100330007B018B01040F151FEB015E01AE18BF0896
:10034000C017D10759F06991D601ED91FC91019048
:10035000F081E02DC6010995892B79F7C501DF9160
:10036000CF911F910F91FF90EF90DF90CF90BF90B2
:10037000AF900895FC01538D448D252F30E0842FDC
:1003800090E0821B930B541710F0CF9608950197BD
:100390000895FC01918D828D981761F0A28DAE0FAA
:1003A000BF2FB11D5D968C91928D9F5F9F73928F31
:1003B00090E008958FEF9FEF0895FC01918D828D5D
:1003C000981731F0828DE80FF11D858D90E008952A
:1003D0008FEF9FEF0895FC01918D228D892F90E082
:1003E000805C9F4F821B91098F739927089587E73F
:1003F00095E00E94EB0121E0892B09F420E0822F97
:10040000089580E090E0892B29F00E94F701811186
:100410000C9400000895FC01A48DA80FB92FB11D04
:10042000A35ABF4F2C91848D90E001968F7399272A
:10043000848FA689B7892C93A089B1898C91837008
:1004400080648C93938D848D981306C00288F38901
:10045000E02D80818F7D80830895EF92FF920F932E
:100460001F93CF93DF93EC0181E0888F9B8D8C8D60
:1004700098131AC0E889F989808185FF15C09FB754
:10048000F894EE89FF896083E889F9898081837017
:10049000806480839FBF81E090E0DF91CF911F91C6
:1004A0000F91FF90EF900895F62E0B8D10E00F5FE7
:1004B0001F4F0F731127E02E8C8D8E110CC00FB6BD
:1004C00007FCFACFE889F989808185FFF5CFCE0155
:1004D0000E940B02F1CFEB8DEC0FFD2FF11DE35AC3
:1004E000FF4FF0829FB7F8940B8FEA89FB898081D8
:1004F0008062CFCFCF93DF93EC01888D8823B9F052
:10050000AA89BB89E889F9898C9185FD03C080811E
:1005100086FD0DC00FB607FCF7CF8C9185FFF2CF9B
:10052000808185FFEDCFCE010E940B02E9CFDF91E4
:10053000CF9108952091AB04260F3327331F21322A
:100540003105ECF420914D05FC0190E080E0243071
:1005500069F082E00895A091AB042191AC01455768
:100560005B4FA40FB52FB11D2C930196861798F3FE
:100570008091AB04680F6093AB0480E0089581E044
:10058000089510924D0581E080934C051092270547
:1005900061E082E10E94F00061E083E10E94F000EE
:1005A000E9EBF0E080818E7F808380818D7F808386
:1005B00088E48093B80085E48093BC000895CF93CD
:1005C000DF9391E090938A048823B9F0C091B8003A
:1005D000D091BA008091BC008A7B8093BC0060E01F
:1005E00082E10E94F00060E083E10E94F0000E943E
:1005F000C102D093BA00C093B800DF91CF910895A3
:100600008F929F92AF92BF92CF92DF92EF92FF9222
:100610000F931F93CF93DF93D0917605D13208F0DB
:10062000D7C0182FC09175050E945A016B017C013B
:1006300080914D0581116BC082E080934D05109330
:100640004C058FEF80934B0510924A05D0934905D6
:10065000A5E5B5E0E9E2F5E080E0D81391C010929D
:10066000280580912805CC0FC82BC09328058091C0
:100670002705813009F088C0109227050E945A0191
:100680006B017C01809128058093BB0080914F0510
:1006900090915005A0915105B0915205892B8A2B5C
:1006A0008B2BA1F00E945A0100914F05109150052B
:1006B00020915105309152056C197D098E099F09D1
:1006C000061717072807390708F442C08091BC00B5
:1006D00083FDD8CF85EC8093BC000E945A016B014A
:1006E0007C0180914D05823009F450C080914B050A
:1006F0008F3F09F46FC080914B05803209F46CC0C4
:1007000080914B05803309F469C084E026C0809154
:100710004F0590915005A0915105B0915205892B3C
:100720008A2B8B2B09F484CF0E945A0180904F05AD
:1007300090905005A0905105B09052056C197D091C
:100740008E099F0986169706A806B90608F070CF8D
:1007500080914E050E94DF0285E0109254051092B0
:10076000760510925305DF91CF911F910F91FF9065
:10077000EF90DF90CF90BF90AF909F908F900895B3
:100780009D9191938F5F69CF85EEA5CF80914F05A5
:1007900090915005A0915105B0915205892B8A2B5B
:1007A0008B2B09F49ECF0E945A0100914F051091A6
:1007B000500520915105309152056C197D098E0923
:1007C0009F09061717072807390708F08ACFC0CFF7
:1007D00081E0C3CF80E0C1CF82E0BFCF83E0BDCF57
:1007E0000895E091060580910505E81730F4F0E0E2
:1007F000E95FFA4F808190E008958FEF9FEF0895B1
:1008000090910605809105052FEF3FEF981748F46A
:10081000E92FF0E0E95FFA4F208130E09F5F90938D
:100820000605C90108958091050590910605891B6B
:10083000990B0895CF92DF92EF92FF920F931F933F
:10084000CF93DF937C01CB018A01209153052223B2
:1008500089F0EB016B01C40ED51ECC15DD0569F0E6
:100860006991D701ED91FC910190F081E02DC701D4
:100870000995F3CF642F0E949A02C801DF91CF91AE
:100880001F910F91FF90EF90DF90CF900895CF933D
:10089000DF931F92CDB7DEB76983209153052223E2
:1008A000F9F020917605203258F021E030E0FC018B
:1008B0003383228390E080E00F90DF91CF91089501
:1008C00080915405E82FF0E0EB5AFA4F998190831C
:1008D0008F5F809354058093760581E090E0ECCFA4
:1008E00061E0CE0101960E949A02F7CFCF93DF9389
:1008F000EC018B818823A1F0888191E090935305CE
:1009000080937505109254051092760581E00E943F
:10091000000391E0811190E0892FDF91CF9108953C
:100920001092060510920505109254051092760556
:100930000E94C1028BE891E09093D1048093D0048F
:100940008CE891E09093CF048093CE0481E08B8378
:10095000CE010E947604982F8111CECFDDCF8091F9
:10096000A6029091A702982789279827449720915B
:10097000C40230E044E0359527954A95E1F7220F0F
:10098000331F220F331F821B930B97FF02C090E08F
:1009900080E008952091BA023091B8023093BA02F3
:1009A0002093B8022091BB023091B9023093BB0270
:1009B0002093B902E6E9F2E021A5820F911D25A559
:1009C00085A7662381F021A7892F9927319722E0F7
:1009D000E239F20789F71092C8021092C90280E545
:1009E0008093C402089511A6EFCF0F931F93CF9366
:1009F000DF9370E06A567D4F8A01075F1F4F2130F9
:100A000029F0223031F48A010250110930E020E04F
:100A100003C000E010E09801EB01FA01E230F105BB
:100A200058F0A991B991BA27AB27BA270A0F1B1F13
:100A3000211D311D3297F2CFFA01EE7F6E0F7F1F1D
:100A40004E175F0769F0FB01408150E070E060E005
:100A5000762F652F542F4427040F151F261F371F8D
:100A6000A90166277727411551056105710519F020
:100A700022273327F1CF00951095E82FF0E0EA56B2
:100A8000FD4F10830183DF91CF911F910F91089546
:100A9000E6E9F2E0108E118E80E4848B158A868B55
:100AA00020E044E150E06EE088E10C94F50490E031
:100AB00080E008958EBD0DB407FEFDCF089561E07E
:100AC0008091D2040E94F00078940895F89460E038
:100AD0008091D2040C94F0000F931F93CF93DF9377
:100AE000EC018B010E9466052097B9F08AE30E9411
:100AF0005A051EBCF801CE01019739F00DB407FE6E
:100B0000FDCF2EB51EBC2193F7CF2197C00FD11F6B
:100B10000DB407FEFDCF8EB58883DF91CF911F9175
:100B20000F910C945F051F93CF93DF93182FC62F5F
:100B3000D42F0E9466058C2F8F71812B0E945A053D
:100B40008D2F0E945A05DF91CF911F910C945F0564
:100B5000CF93C82FC076809195028C1799F043E00F
:100B60006FE180EA0E949305C09395024C2F50E0FC
:100B700085E0559547958A95E1F76FE180E8CF913B
:100B80000C949305CF910895CF93DF93C82FD62F60
:100B90000E94A8054D2F6C2F80E4DF91CF910C941B
:100BA0009305CF93DF93C82FD72F0E94C4056D2FD5
:100BB00081E08C0FDF91CF910C94C405CF93C82FA7
:100BC0000E94A8050E9466058C2F8F710E945A050D
:100BD00080E00E945A05C7FF03C080E00E945A05CA
:100BE000CEB50E945F058C2FCF910895CF93DF93F0
:100BF000EC0140E86FE180E80E94930540E86FE176
:100C000080EA0E9493054AE06CE180EA0E94930525
:100C100060E07CE082E00E94D105BE01745F86E066
:100C20000E94D10540E060E08AE70E9493050E949F
:100C300066052097B1F08AE70E945A0580919602D6
:100C40008EBDE7E9F2E0CA56DD4FEC17FD0731F043
:100C500081910DB407FEFDCF8EBDF7CF0DB407FE19
:100C6000FDCF0E945F0548E06FE180E80E94930598
:100C7000D0E0C0E08CE10E94DE058A7029F4219664
:100C8000C83E83E0D807B1F78CE10E94DE0581FD04
:100C900003C0C83ED34039F448E06FE180EADF91F9
:100CA000CF910C949305DF91CF9108950F931F93EB
:100CB000CF93DF938C018896C6E9D2E0988B898B1D
:100CC0000E9448051AAA1BAAA801445E5F4F22E0B1
:100CD0006AE182E30E94F504C801C696DF91CF91D4
:100CE0001F910F910C94F605CF93DF93EB01682FC2
:100CF00084ED0E94C405BE0186ED0E94D1058AEEF6
:100D00000E94DE0580FDFBCFDF91CF910895CF9249
:100D1000DF92EF92FF920F931F938634910568F153
:100D20002091B902233449F5C090C402D090C50285
:100D3000E090C602F090C7020091910210919202D9
:100D40002091930230919402C016D106E206F30678
:100D5000A1F4E0EBF3E08A569D4F9F012E5F3F4FD9
:100D600041815081553319F45281651771F0F901B1
:100D7000E40FF11DE817F90780F380E01F910F9150
:100D8000FF90EF90DF90CF90089581E0F7CFE09152
:100D90008A02F0918B029F012F5F3F4F30938B02AD
:100DA00020938A0280830895FF920F931F93CF931D
:100DB000DF93162FF42E052F0E94C706812F0E9465
:100DC000C706CF2DD02F115020F089910E94C70661
:100DD000FACFDF91CF911F910F91FF9008951F934C
:100DE000CF93DF93DC011496ED91FC91E417F507A6
:100DF00010F490E01FC0122FEA01FC018181928162
:100E0000208131E0309353052093750510925405ED
:100E100010927605DC01ED91FC910280F381E02DCA
:100E20000995C817D90729F7812F0E94000391E07F
:100E30008111DFCF892FDF91CF911F9108952F92DC
:100E40003F924F925F926F927F928F929F92AF925A
:100E5000BF92CF92DF92EF92FF920F931F93CF93A7
:100E6000DF935C011B016A01F12CE12CD501149682
:100E70008D919C9186010E191F098017910708F426
:100E80008C01F501D0810E945A012B013C01809117
:100E90004D05811172C0C02F013208F0C0E2F1E0AF
:100EA000F0934D0521E0C601801B910BE816F90671
:100EB00008F420E020934C058FEF80934B051092AF
:100EC0004A058C0F80934905A1E0A09328058091E5
:100ED0002805DD0FD82BD093280580912705813078
:100EE00009F090C0109227050E945A012B013C0185
:100EF000809128058093BB0080914F05909150050B
:100F0000A0915105B0915205892B8A2B8B2BA1F012
:100F10000E945A0120914F05309150054091510592
:100F200050915205641975098609970926173707E4
:100F30004807590708F442C08091BC0083FDD8CF10
:100F4000B5ECB093BC000E945A012B013C0180918A
:100F50004D05813009F45AC080914A058C1710F470
:100F6000C0914A05A9E2B5E0E7E0F5E080E08C1722
:100F700051F19D9191938F5FFACF80914F059091A0
:100F80005005A0915105B0915205892B8A2B8B2BCE
:100F900009F47DCF0E945A0120914F0530915005F0
:100FA00040915105509152056419750986099709B8
:100FB000261737074807590708F069CF80914E0573
:100FC0000E94DF02C0E010920605C0930505C0171D
:100FD000110609F057C041018E0C9F1CE401CE019F
:100FE000881999098017910798F5D50111968D9167
:100FF0009C91DC01ED91FC910284F385E02D099533
:101000008993EDCFE5EEE093BC009DCF80914F0535
:1010100090915005A0915105B0915205892B8A2BD2
:101020008B2B09F494CF0E945A0120914F053091E7
:101030005005409151055091520564197509860972
:101040009709261737074807590708F080CFB6CF0A
:10105000E00EF11EEC14FD0408F408CF81E0DF91EE
:10106000CF911F910F91FF90EF90DF90CF90BF90A5
:10107000AF909F908F907F906F905F904F903F9038
:101080002F90089580E0EBCFCF93DF9300D0CDB7C2
:10109000DEB78FE08A8321E041E050E0BE016E5F61
:1010A0007F4F80910305909104050E94EF0641E077
:1010B00050E0BE016F5F7F4F809103059091040562
:1010C0000E941F0789810F900F90DF91CF910895A3
:1010D000CF93DF93FC0101900020E9F73197AF0136
:1010E000481B590BBC0187E795E00E948D01EC017C
:1010F00042E050E062E771E087E795E00E948D01F1
:101100008C0F9D1FDF91CF91089585ED8093BC00DA
:1011100080914F0590915005A0915105B0915205D5
:101120000796A11DB11D23E0B695A79597958795C4
:101130002A95D1F72091BC0024FD03C010924D05E3
:10114000089540914F05509150056091510570915F
:101150005205452B462B472B69F30097A105B10596
:1011600041F02AE22A95F1F700C00197A109B109DF
:10117000E1CF80914E050C94DF02DC0196E0FB018B
:1011800001900D929A95E1F70895BC0186E992E0ED
:101190000E94BD086CED74E08CE992E00C94BD08EF
:1011A000DC0194E0FB0101900D929A95E1F708951E
:1011B0008CE992E00E94C50860EB72E084EB92E05B
:1011C0000E94D0086FEF74E080EB92E00E94D0089C
:1011D0000C944805262F20612093C502643021F02D
:1011E000009711F481E090E061E00E94CA0410923F
:1011F000A60288E28093A7020E94D80884E0809328
:10120000C6021092C70222E04CE150E06AE182E39C
:101210000E94F50486E390E00C94F605CF93DF93EB
:10122000EB010E94C508BE0184EB92E00E94D00849
:101230006FEF74E080EB92E0DF91CF910C94D008D7
:10124000CF93DF93EB0144E050E0BC0182EB92E0EE
:101250000E944D16892B49F46CEA72E0CE010E947F
:10126000BD0881E0DF91CF91089580E0FBCF0F931F
:101270001F93CF938C0188E491E00E94C508E6E9B2
:10128000F2E088E08487C6E0C58748E050E06FE779
:1012900070E084EA92E00E94A814E6EBF2E0DF013D
:1012A0001D92CA95E9F76CED74E08CEA92E00E9419
:1012B000BD08B8018CEB92E00E94D0086FEF74E09B
:1012C00082EB92E00E94D0088AE290E0CF911F91D9
:1012D0000F910C94F605EF92FF920F931F93CF930B
:1012E000DF938C01E6E9F2E086E191E0DF019C0109
:1012F0001D9221503040E1F780919002C8E4D1E086
:10130000833011F4CCE8D2E0CE010E94A700BE01E8
:10131000882309F4ACC084E892E00E940E09888119
:10132000807F803E91F088819981AA81BB818F3F27
:101330009F4FAF4FBF4F49F044E050E0BE0182EEF7
:1013400094E00E944D16892B31F468E471E086E93F
:1013500092E00E94BD0888E08093A2021092A3024E
:1013600049E050E062E770E084EA92E00E94A8144D
:101370001092A60281E18093AD021092BA0283E43A
:101380008093BB021092B80284E48093B902109259
:10139000BC021092BE021092BF0268E471E086E9BE
:1013A00092E00E94BD0881E08093C0028093C10258
:1013B00086E08093C2028091910290919202A09166
:1013C0009302B09194028093C4029093C502A093BB
:1013D000C602B093C702C0919002C33031F46FEFE0
:1013E00074E08CEC92E00E94D0086CED74E08CED1F
:1013F00092E00E94BD088CEA93E090938B02809368
:101400008A02EBE7F0E084910E94C706ECE7F0E087
:1014100084910E94C706EDE7F0E084910E94C70620
:10142000EEE7F0E084910E94C70685E30E94C706BC
:1014300081E00E94C70683E0C11101C081E00E94E3
:10144000C7068DE30E94C70687E00E94C70681E0B9
:101450000E94C7068CEDE82E84E0F82EC7E0C1504C
:1014600049F0D7018D917D010E94C706F8CF8EE724
:1014700092E053CF80910201882371F062E071E025
:10148000FB0101900020E9F7BF016350714042E089
:1014900051E08CE00E94D4060115110559F0A80115
:1014A00064E082E30E94D4064CE852E064E086E304
:1014B0000E94D40687E30E94C70683E00E94C70605
:1014C00081E00E94C70683E00E94C70686E00E9472
:1014D000C7068FEF0E94C706C0918A02D0918B0287
:1014E000C05CD240CE014C969093A6028093A70296
:1014F0000E944805CE0108969093BC028093BD02DD
:10150000AE01405F5F4F21E06AE188E20E94F5048E
:10151000CE018A96DF91CF911F910F91FF90EF90AE
:101520000C94F6054F925F926F927F928F929F92EA
:10153000AF92BF92CF92DF92EF92FF920F931F93E1
:10154000CF93DF93CDB7DEB7C253D1400FB6F89437
:10155000DEBF0FBECDBF19820091030510910405B7
:1015600020E041E050E0CE0101967C01BC01C801C1
:101570000E94EF06882331F047E050E0B701C80130
:101580000E941F072A81822F90E0B4E095958795ED
:10159000BA95E1F7982F990F990FC82EC91ACC0C5C
:1015A000C20E2B81822F90E014E0959587951A95B5
:1015B000E1F7982F990F990FD82ED91ADD0CD20E7A
:1015C00080917D028111ABC198E0D91205C0C11094
:1015D000A6C190E080E011C0ACE0DA1206C0BEE126
:1015E000CB129DC181E090E008C02AE0D21297C1E1
:1015F0008CE1C81294C182E090E026E0289FF001BF
:10160000299FF00D1124EA5CFE4F0481158191E0C1
:101610000537190709F483C161E087E00E94F000F3
:10162000E1EFF0E08491EDEDF0E0B490E9ECF0E072
:10163000A490A1107BC181E080937D0205E711E0B9
:101640001F930F931F92CF921F92DF9280E991E038
:101650009F938F93FF92EF920E9463160FB6F894B8
:10166000DEBF0FBECDBF80916402882379F0609108
:101670006202709163026115710509F067C16FEF35
:101680007BE08CE00E94D1051092640289E30E9405
:10169000DE0510E000E0882309F445C06091620295
:1016A0007091630280E00E94D105BE01635D7E4FB0
:1016B00086E090E00E946C05C35DDE4F88819981D1
:1016C000CD52D1409093630280936202CF5CDE4F93
:1016D00088819981C153D1408C010078112787FFFF
:1016E00016C0C15DDE4F88819981CF52D1400497E9
:1016F0000091D3041091D40401501109801791076F
:1017000008F48C0166E972E0C8010E946C05F801DA
:10171000EA56FD4F108281E08093640240E46EE15E
:1017200080E80E9493058091F104882369F08091FC
:101730009002823009F413C108F00BC1882309F428
:1017400097C1813009F4B3C10115110509F040C2F8
:101750008091EA04857029F18091EB049091EC046A
:10176000892BF9F461E184ED0E94C40561E082ED0A
:101770000E94C4058AEE0E94DE0580FDFBCF60E07A
:1017800082ED0E94C40589ED0E94DE0582FF09C03A
:1017900086EE94E00E9437098091EA048860809385
:1017A000EA048091EB049091EC0401969093EC0490
:1017B0008093EB0480917A02813009F06EC08091B1
:1017C000EA0481FF6AC082E080937A02809101017D
:1017D0008F5F80930101182F1F7184E792E00E94B0
:1017E000A70064E772E0882309F4EFC184E892E07F
:1017F0000E940E0908E00093A2021092A30249E0A1
:1018000050E062E770E084EA92E00E94A8148CE263
:101810008093A70286E08093AD020E944805109253
:10182000BA021092BB028BE08093B8021093B90207
:10183000ECEBF2E0DF011D920A95E9F780910001DF
:101840008093BE028D5F8093000180E68093C40286
:1018500082E08093C50293E09093C6021092C70283
:101860001092C8021092C9021092CA021092CB02C2
:101870008093CC0294E09093CD028093CE0286E2D6
:101880008093CF0222E040E250E06AE182E30E94CE
:10189000F5048AE390E00E94F6058DEE94E00E9444
:1018A000A700882379F08091790281110BC0809183
:1018B0007802811107C08DEE94E00E94370981E023
:1018C0008093780284E792E00E94A700882379F051
:1018D0008091730281110BC080917202811107C047
:1018E00084E792E00E94370981E080937202CE5C27
:1018F000DE4F0FB6F894DEBF0FBECDBFDF91CF91A4
:101900001F910F91FF90EF90DF90CF90BF90AF901D
:101910009F908F907F906F905F904F90089560E0C0
:1019200087E00E94F00005E711E07ACE81110E9465
:10193000C700EA2DF0E0EE0FFF1FE859FF4FA59119
:10194000B491EC91BE2209F476CE7ACE6150710941
:1019500098CE833009F457C0843009F0F5CE65E0A5
:10196000C8010E948706882309F4CCC080916502D3
:10197000811108C088E30E94DE05682F6E7F88E32E
:101980000E94C40560ED72E08FEF94E00E94D008E1
:10199000E0EBF3E0C8018A569D4F5C016F0192E0D5
:1019A000C90ED11C91808081863009F4FDC008F0F9
:1019B000C0C0813009F4EEC0833009F4F1C0F601F3
:1019C000E90DF11DEA15FB0548F30E947F016093C4
:1019D0006A0270936B0280936C0290936D02809107
:1019E000E604882361F01092EC041092EB0481E08D
:1019F0008093EA0466EE74E0CB010E94D00883E095
:101A000080939002A1CE80906E0290906F02A09081
:101A10007002B0907102BFEF8B169B06AB06BB063F
:101A200009F492CE0E947F0140906A0250906B02AE
:101A300060906C0270906D026419750986099709AF
:101A4000681579058A059B0508F47ECE8FEF94E032
:101A50000E946B0984E0809390020E947F01609352
:101A600066027093670280936802909369026CCE5D
:101A70000E947F016093910270939202809393027F
:101A800090939402EFEFF4E084E0DF011D928A95D9
:101A9000E9F790E080E00E946B0988E30E94DE0590
:101AA000682F616088E30E94C40581E0D4CF62E0C2
:101AB000C8010E948706882329F160ED72E0CE01FB
:101AC000835D9E4F0E94D008E0EBF3E0C8018A5688
:101AD0009D4FBF016E5F7F4F21813081363359F4B6
:101AE0008CE892E00E94D008CE01835D9E4F0E9458
:101AF0006B0982E0B0CFFB01E20FF11DE817F90797
:101B000040F3F2CF0E947F018090660290906702BE
:101B1000A0906802B0906902681979098A099B0946
:101B2000613177428105910508F40ECE1092900242
:101B30000BCE8A3331F08F3F09F447CF833309F05E
:101B40003ECF10926E0210926F02109270021092AD
:101B50007102F601C601049620E030E0A90161910E
:101B6000542F432F322F2227260F311D411D511D87
:101B70008E179F07A1F72F3FAFEF3A074A075A0783
:101B8000B9F420936E0230936F0240937002509329
:101B9000710215CFB6018BEF94E00E94D0080FCFF1
:101BA000B60186EE94E0F9CFB6018DEE94E0F5CF64
:101BB000A8EEB3E00E94B11460936E0270936F02BE
:101BC0008093700290937102FACE8EE792E010CE6D
:101BD0000932110508F48BCE8091A202883009F0F9
:101BE00086CE8091A302863009F04EC144E050E0D9
:101BF0006FEF74E08CEB92E00E944D16892B09F098
:101C000076CE8091AB02813029F58CE992E00E947A
:101C1000C5081092AA0282E08093AB026CEA72E0DF
:101C200086EB92E00E94BD086CED74E08CEA92E0D5
:101C30000E94BD0862EB72E08CEB92E00E94D0083B
:101C40006FEF74E082EB92E00E94D0088AE290E0AD
:101C50000E94F6058091EA0483FF0DC01091AB024B
:101C6000123049F46EE772E086EE94E00E9420099B
:101C700081111093EA0480917902811111C0809141
:101C80007802882369F064E872E08DEE94E00E94A7
:101C90002009882329F081E080937902109278024C
:101CA00080917302811123CE80917202882309F4FE
:101CB0001ECE64E872E084E792E00E942009882347
:101CC00009F415CE81E080937302109272020FCE58
:101CD0000633110508F40BCE863009F008CE80914A
:101CE000BA028B3009F04CC044E050E064E772E087
:101CF00080EB92E00E944D16892B09F0F8CD1091EF
:101D0000C50285E012FD34C00E94AF0420917A0222
:101D1000223009F5212F20711271123181F460E017
:101D200090E080E00E94EA0888E18093C50283E0A9
:101D300080937A0290E080E00E945606D8CD31E090
:101D400030937A020196222311F090E080E064E063
:101D50000E94EA08CCCD253009F4C9CD10FF0BC094
:101D6000233009F4C4CD69E001960E94EA0886E0B8
:101D700080937A02BCCD60E0009709F4B8CDE8CF3B
:101D80008111B5CD8091BB02803509F0B0CDB09006
:101D9000C502B1FE39C01092A6028CE28093A70260
:101DA0000E94D80882E18093C50260E081E090E063
:101DB0000E94CA041092BC021092BD0280910001E0
:101DC0008093BE021092BF028D5F8093000182E07B
:101DD0008093CC0284E08093CD0285E08093CE0294
:101DE0001092CF0290E69093C4028093C60288E7D7
:101DF0008093C70222E040E250E06AE182E30E9461
:101E0000F5048AE390E085C0B4FE71CD0E94AF0472
:101E10006C0190937C0280937B02892B79F18091F5
:101E2000C40290E024E0959587952A95E1F7880F04
:101E3000991F880F991F82960817190708F457CD24
:101E4000F70101900020E9F73197AF014E195F09C2
:101E5000B7018CEC92E00E945A16F7010190002025
:101E6000E9F731978F010E191F0960E0C6010E9442
:101E7000EA0889E18093C502C8015ECFB0FE37CD84
:101E800060E090E080E064CF0932110509F42FCDC5
:101E900081112DCD8091A402853409F028CD44E034
:101EA00050E06FEF74E084EB92E00E944D16892BB6
:101EB000A9F044E050E062EE74E084EB92E00E940E
:101EC0004D16892B59F044E050E068E471E084EB52
:101ED00092E00E944D16892B09F009CD8091AD0248
:101EE000813009F0F5CE8091B802883009F0FFCC3E
:101EF0000E94D8081092B8028091BA02883F28F058
:101F00009091BB029F5F9093BB02885F8093BA025F
:101F1000C8010E94F605EBCC1F920F920FB60F92EC
:101F200011242F933F938F939F93AF93BF938091EF
:101F3000F3049091F404A091F504B091F60430916B
:101F4000F20423E0230F2D3758F50196A11DB11D92
:101F50002093F2048093F3049093F404A093F50487
:101F6000B093F6048091F7049091F804A091F904DD
:101F7000B091FA040196A11DB11D8093F7049093CE
:101F8000F804A093F904B093FA04BF91AF919F9124
:101F90008F913F912F910F900FBE0F901F9018952A
:101FA00026E8230F0296A11DB11DD2CF1F920F92DA
:101FB0000FB60F9211242F933F934F935F936F931C
:101FC0007F938F939F93AF93BF93EF93FF9387E795
:101FD00095E00E940B02FF91EF91BF91AF919F910D
:101FE0008F917F916F915F914F913F912F910F90C2
:101FF0000FBE0F901F9018951F920F920FB60F9261
:1020000011242F938F939F93EF93FF93E091870574
:10201000F09188058081E0918D05F0918E0582FD1B
:102020001BC09081809190058F5F8F7320919105E7
:10203000821741F0E0919005F0E0E958FA4F958F52
:1020400080939005FF91EF919F918F912F910F9029
:102050000FBE0F901F9018958081F4CF1F920F92A2
:102060000FB60F9211242F933F934F935F936F936B
:102070007F938F939F93AF93BF93EF93FF93809141
:10208000B900887F803609F44AC0F0F5883209F437
:10209000A7C018F5803109F49BC0B8F4882309F46F
:1020A000F9C0883009F494C0FF91EF91BF91AF91CE
:1020B0009F918F917F916F915F914F913F912F9160
:1020C0000F900FBE0F901F901895883109F488C0AB
:1020D000803251F780934B0514C0803409F49DC0C1
:1020E00040F48033B9F38833F9F680934B0585ECDF
:1020F000B0C0803509F485C0883509F496C08834AD
:1021000099F60E948508D0CF883909F48CC038F53B
:10211000883729F050F4883611F0803729F683E0AB
:1021200080934D051092CD0457C0883809F47BC0C8
:10213000803919F0803809F0B7CF8091CD04803212
:1021400008F071C0E091CD0481E08E0F8093CD0442
:102150008091BB00F0E0E355FB4F80833DC0803BA6
:1021600039F0E0F4803A09F479C0883A09F09CCF5C
:1021700084E080934D051092AC041092AB04E09182
:10218000D004F091D10409958091AB0481110FC066
:1021900081E08093AB0410928B0409C0803C09F469
:1021A000A6CF883C09F4A3CF883B09F07DCFE0910E
:1021B000AC0481E08E0F8093AC04F0E0E557FB4F58
:1021C00080818093BB009091AC048091AB0429C0C6
:1021D000809128058093BB0085EC8093BC0064CF80
:1021E00090914A0580914905981758F5E0914A0564
:1021F00081E08E0F80934A05F0E0E75DFA4F808121
:10220000E9CFE0914A0581E08E0F80934A058091E5
:10221000BB00F0E0E75DFA4F808390914A05809122
:1022200049059817C8F285E8D8CFE0914A0581E0C2
:102230008E0F80934A058091BB00F0E0E75DFA4F76
:10224000808380914C0581115CCF81E080932705CC
:1022500084EA8093BC0010924D0526CF85EC8093D4
:10226000BC0010924D058091CD04803230F4E09195
:10227000CD04F0E0E355FB4F10826091CD0470E097
:10228000E091CE04F091CF048DEA94E0099510928C
:10229000CD040ACF10924B0534CFFC0190819053AE
:1022A0009A3008F090E0818180532AE0929F800D5F
:1022B00011240895E7E7F5E01382128288EE93E097
:1022C000A0E0B0E084839583A683B78322E531E064
:1022D0003183208325EC30E03587248724EC30E0FF
:1022E0003787268720EC30E0318B208B21EC30E0E3
:1022F000338B228B22EC30E0358B248B26EC30E0C4
:10230000378B268B118E128E138E148EE4E1F6E03D
:102310001382128284839583A683B78384E691E037
:10232000918380830895CF93DF93CDB7DEB72D9748
:102330000FB6F894DEBF0FBECDBF789484B582602F
:1023400084BD84B5816084BD85B5826085BD85B559
:10235000816085BD80916E00816080936E001092D7
:102360008100809181008260809381008091810052
:1023700081608093810080918000816080938000E3
:102380008091B10084608093B1008091B000816041
:102390008093B00080917A00846080937A0080916D
:1023A0007A00826080937A0080917A0081608093C5
:1023B0007A0080917A00806880937A001092C10040
:1023C000E0918705F091880582E08083E0918305A4
:1023D000F09184051082E0918505F09186058FECDF
:1023E000808310928F05E0918B05F0918C0586E03B
:1023F0008083E0918905F0918A05808180618083E6
:10240000E0918905F0918A05808188608083E09160
:102410008905F0918A05808180688083E091890533
:10242000F0918A0580818F7D808361E087E00E9442
:102430001E0162E08EE00E941E01809103059091D2
:102440000405009711F00E94C41586E090E00E94F8
:1024500028157C0188E6D7018C9384E196E01296DA
:102460009C938E93119713961C92139780E290E0A1
:1024700015969C938E931497F0920405E0920305B1
:1024800010920605109205051092540510927605DB
:102490000E94C1028BE891E09093D1048093D00414
:1024A0008CE891E09093CF048093CE0481E0F70113
:1024B0008383C7010E947604811105C082EF91E0F9
:1024C0000E946808FFCF0E94440890E0880F892F7F
:1024D000881F990B892B09F4FAC084E092E00E94CE
:1024E00068084BE050E06BE970E0CE0101960E9475
:1024F000A814CE010A960E944D11082FE981E154DB
:10250000E331D8F40E2E000CFF0BE757FD4E0C9470
:102510002215F2129D129D1206139D129C129D12FD
:102520009D129D12E6129D129D12F91204130213C0
:102530009D129D129D12001312E0CE0105960E947D
:102540004D11F82E48E050E062E970E0CE010196AE
:102550000E94A814CE0101960E944D11E82ECE01D2
:1025600004960E944D11D82ECE0107960E944D115F
:10257000382F1A8219822AE0622F0E940215982FA2
:10258000880F890F880F830F8A838D2D0E94021573
:10259000982F880F890F880F8D0D8B838E2D0E94A9
:1025A0000215982F880F890F880F8E0D8C83602F4E
:1025B00070E02F2D30E0E7E8F0E081E0811740F592
:1025C0009491290F311D8F5F3196F8CF8A8111E0E8
:1025D000813609F4B2CF8B8117E08E3609F0ADCF8A
:1025E00016E0ABCF8B8118E0823709F0A6CF14E05C
:1025F000A4CF8B8115E0823709F09FCF13E09DCFE8
:1026000019E09BCF1AE099CF1BE097CF1CE095CF44
:10261000133028F0802F837011F42F5F3F4FCB01D0
:1026200003969695879596958795EDE6F1E06E9FD2
:10263000A0016F9F500D7E9F500D11244B5F5F4F87
:10264000840F951F820F931F67E070E00E940E15A4
:10265000811101C087E08D832AE08F2D622F0E94B7
:102660000215982F880F890F880F8F0D8E83812F69
:102670000E940215982F990F890F880F180F1F833A
:10268000802F0E940215982F880F890F880F800FC6
:10269000888721E048E050E0BE016F5F7F4F809166
:1026A0000305909104050E94EF060E9444089FE0F4
:1026B0009C878F778D8721E042E050E0BE01645F08
:1026C0007F4F80910305909104050E94EF061092C0
:1026D000F10487E390E0C12CD12C7601C3940097DC
:1026E000C1F0FC0123E0F595E7952A95E1F7EB525F
:1026F000FB4F282F2770B701A60104C0440F551FB8
:10270000661F771F2A95D2F72081242B20830197FB
:10271000E6CF6AE271E08CED94E00E94BD0884EFA0
:1027200091E09093D4048093D3040CB406FC25C0AC
:1027300061E08AE00E941E0161E08AE00E94F000F0
:1027400061E08BE00E941E0161E08DE00E941E01AD
:1027500060E08CE00E941E0161E08BE00E94F000CE
:1027600060E08BE00E94F00060E08DE00E94F000ED
:1027700080E58CBD8DB581608DBD8AE08093D204EB
:1027800061E00E941E010E945F054FEF60E08FEF45
:102790000E9493050E945A016B017C0192E0892EF0
:1027A000912CA12CB12C0E945A016C197D098E0923
:1027B0009F09683E734081059105A8F3F8EECF0E9E
:1027C000F3E0DF1EE11CF11C8A9489288A288B28FB
:1027D00029F0812C912C54018394E5CF0E94660549
:1027E0008DE10E945A0580E00E945A051EB50E94A4
:1027F0005F05112399F370E060E088E00E94D10545
:1028000070E060E08CE00E94D1056FEF7BE08AE031
:102810000E94D10560E07CE084E00E94D1056FEF6A
:1028200071E186E00E94D10566E774E084E10E94D0
:10283000740661EB88E30E94C4056FE370E388E2ED
:102840000E94D10569EF77EF80E30E94D10561E036
:1028500080EC0E94C40542E362EC80E80E9493058C
:1028600062E17CE086EC0E94D10562E184EC0E948A
:10287000C4056CED75E08AEC0E94D1056091DC0422
:1028800084EE0E94C4056091DD0485EE0E94C405BB
:102890006091DE0482EE0E94C4056091DF0483EE45
:1028A0000E94C4056091E00480EE0E94C40560911E
:1028B000E10481EE0E94C40560E071E080E10E94C5
:1028C00074068FE10E94A80540EC6BE180E80E944D
:1028D000930544E06FE180E80E94930582E70E943F
:1028E000DE051092F10466E271E08FEF94E00E9441
:1028F000D0081092EC041092EB0481E08093EA047B
:1029000062E271E086EE94E00E94D008EFEFF4E01E
:102910002BEF34E062EE74E043E055E09191D90191
:102920008D919D018095892BDB018D93BD014E1703
:102930005F07A1F700E010E00E94920A011511055F
:10294000D9F30E94F7018823B9F30E940000F4CF65
:10295000FB01DC0102C005900D9241505040D8F7B8
:1029600008950E94F314A59F900DB49F900DA49F0D
:10297000800D911D112408952F923F924F925F92E6
:102980006F927F928F929F92AF92BF92CF92DF927F
:10299000EF92FF920F931F93CF93DF93CDB7DEB7E4
:1029A000CA1BDB0B0FB6F894DEBF0FBECDBF099478
:1029B0002A88398848885F846E847D848C849B84CF
:1029C000AA84B984C884DF80EE80FD800C811B81DD
:1029D000AA81B981CE0FD11D0FB6F894DEBF0FBE0C
:1029E000CDBFED010895A29FB001B39FC001A39F89
:1029F000700D811D1124911DB29F700D811D112438
:102A0000911D0895991B79E004C0991F961708F04D
:102A1000961B881F7A95C9F780950895AA1BBB1B42
:102A200051E107C0AA1FBB1FA617B70710F0A61BCE
:102A3000B70B881F991F5A95A9F780959095BC01EF
:102A4000CD010895EE0FFF1F0590F491E02D09943C
:102A50000F931F93CF93DF938230910510F482E0A0
:102A600090E0E0912206F091230630E020E0B0E013
:102A7000A0E0309799F42115310509F44AC0281BCC
:102A8000390B24303105D8F58A819B816115710598
:102A900089F1FB0193838283FE0111C04081518142
:102AA0000281138148175907E0F04817590799F434
:102AB000109761F012960C93129713961C9332960E
:102AC000CF01DF91CF911F910F91089500932206BE
:102AD00010932306F4CF2115310551F04217530707
:102AE00038F0A901DB019A01BD01DF01F801C1CF76
:102AF000EF01F9CF9093230680932206CDCFFE01FC
:102B0000E20FF31F81939193225031093983288377
:102B1000D7CF2091200630912106232B41F420911C
:102B20003201309133013093210620932006209109
:102B30003001309131012115310541F42DB73EB7F7
:102B40004091340150913501241B350BE091200652
:102B5000F0912106E217F307A0F42E1B3F0B281774
:102B6000390778F0AC014E5F5F4F2417350748F006
:102B70004E0F5F1F5093210640932006819391933F
:102B80009FCFF0E0E0E09CCFCF93DF930097E9F098
:102B9000FC01329713821282A0912206B091230683
:102BA000ED0130E020E01097A1F420813181820F07
:102BB000931F20912006309121062817390709F02C
:102BC00061C0F0932106E0932006DF91CF91089534
:102BD000EA01CE17DF07E8F54A815B819E014115C6
:102BE0005105B1F7E901FB83EA8349915991C40F7B
:102BF000D51FEC17FD0761F4808191810296840F47
:102C0000951FE90199838883828193819B838A83BD
:102C1000F0E0E0E012968D919C9113970097B9F542
:102C20002D913C911197CD010296820F931F209117
:102C30002006309121062817390739F6309751F5CB
:102C40001092230610922206B0932106A09320062C
:102C5000BCCFD383C28340815181840F951FC81795
:102C6000D90761F44E5F5F4F88819981480F591FE2
:102C7000518340838A819B8193838283211531050F
:102C800009F0B0CFF0932306E09322069ECFFD011A
:102C9000DC01C0CF13821282D7CFFB01DC0104C05C
:102CA0008D910190801921F441505040C8F7881B44
:102CB000990B0895FB01DC0102C001900D92415077
:102CC0005040D8F70895AEE0B0E0E9E6F6E10C94A4
:102CD000CA140D891E8986E08C831A8309838FEFBD
:102CE0009FE79E838D83AE01475E5F4F6F89788D2E
:102CF000CE0101960E9486162F813885020F131F80
:102D0000F80110822E96E4E00C94E614ABE0B0E0FB
:102D1000ECE8F6E10C94BC147C013B018A01FC0157
:102D200017821682838181FFC8C1CE0101965C01A2
:102D3000F7019381F30193FD859193FF81913F0109
:102D4000882309F453C1853239F493FD859193FFAB
:102D500081913F01853229F4B70190E00E947618F5
:102D6000E7CF912C212C312CFFE1F31538F08B3279
:102D700011F190F4803209F1833229F137FC3CC023
:102D800020ED280F2A3050F536FE20C08AE0989EAC
:102D9000200D1124922E06C08D3291F0803371F7F0
:102DA000689430F8F30193FD859193FF81913F0181
:102DB0008111DACF21C0689431F8689432F8F2CFEB
:102DC000689433F8EFCF689434F8ECCFEAE02E9EA5
:102DD000200D1124222E689435F8E4CF8E3229F488
:102DE00036FC04C1689436F8DDCF8C3619F468944B
:102DF00037F8D8CF8836B1F2982F9F7D955493300D
:102E0000E0F08336A1F18337C1F1833509F063C067
:102E10002801F2E04F0E511CF801C080D180692DCD
:102E200070E036FC02C06FEF7FEFC6010E946018B1
:102E30004C01689437F882010AC00C5F1F4FFFE312
:102E4000F98388248394912C6501E89437F833FE44
:102E50002DC0522C8114910471F5552009F468CFCE
:102E6000B70180E290E00E9476185A94F6CFF801FC
:102E7000808189830E5F1F4FE4CF2801F2E04F0E5F
:102E8000511CF801C080D180692D70E036FC02C071
:102E90006FEF7FEFC6010E946B184C018201D5CF06
:102EA000B70180E290E00E9476182A942814190451
:102EB00009F0B0F7CECFF60137FC859137FE81914E
:102EC0006F01B70190E00E94761851105A94F1E01A
:102ED0008F1A9108BFCF843619F0893609F077C070
:102EE000F80137FE6BC060817181828193810C5F34
:102EF0001F4FF32DFF763F2E97FF09C090958095C9
:102F0000709561957F4F8F4F9F4F689437F82AE0F7
:102F100030E0A5010E94A618C82ECA188C2C432C9C
:102F200036FE0CC0E89440F8C91440F434FE05C0E5
:102F300032FC03C0F32DFE7E4F2E892C44FE95C03B
:102F4000FE01EC0DF11D8081803309F087C0242D36
:102F5000297E422E842D8870582E43FC95C040FE59
:102F60008FC09C2C821418F42C0C922C981844FEC0
:102F700091C0B70180E390E00E94761842FE09C03C
:102F800088E790E041FE02C088E590E0B7010E942A
:102F90007618C91408F48AC0CA94D12C9FEFC91AB4
:102FA000D90ACA0CDB1CF60182916F01B70190E0CF
:102FB0000E947618AC14BD04B1F74FCF60817181C7
:102FC000072E000C880B990B0E5F1F4F92CFD32C4E
:102FD000E894D4F82AE030E0853739F1232D297FB1
:102FE000D22E8F3601F148F48835A9F0F701868199
:102FF00097812B96E2E10C94D814803749F08837FA
:10300000A9F7D4FE02C06894D2F820E130E00DC0E8
:103010006894D4F8F6CF34FE03C0822F8660D82E91
:1030200020E132E002C028E030E0F801D7FE0FC016
:1030300060817181828193810C5F1F4FA5010E9485
:10304000A618C82ECA183D2CE89437F867CF6081BF
:10305000718190E080E00E5F1F4FF0CF42FC02C014
:10306000839478CF8394839475CF842D867809F4E4
:1030700071CFF6CFB70180E290E00E94761883947A
:103080008214C0F3512C73CF522C5818821408F4B8
:103090006ECFF8CF842D867809F47BCF8BE241FE8A
:1030A00080E247FC8DE2B70190E071CFB70180E389
:1030B00090E00E9476189A946CCF8FEF9FEF99CF93
:1030C000FC010590615070400110D8F780959095F3
:1030D0008E0F9F1F0895FC016150704001900110F8
:1030E000D8F7809590958E0F9F1F08950F931F938B
:1030F000CF93DF93182F092FEB018B8181FD09C03E
:103100001FEF0FEF812F902FDF91CF911F910F9124
:10311000089582FF14C02E813F818C819D812817E4
:1031200039073CF4E881F981CF01019699838883BE
:1031300010838E819F8101969F838E83E3CFE885E4
:10314000F985812F0995892BA1F3DACFFA01AA27F6
:10315000283051F1203181F1E8946F936E7F6E5FDA
:103160007F4F8F4F9F4FAF4FB1E03ED0B4E03CD088
:10317000670F781F891F9A1FA11D680F791F8A1F6B
:10318000911DA11D6A0F711D811D911DA11D20D0D2
:1031900009F468943F912AE0269F11243019305D8C
:1031A0003193DEF6CF010895462F4770405D41937D
:1031B000B3E00FD0C9F7F6CF462F4F70405D4A33CA
:1031C00018F0495D31FD4052419302D0A9F7EACF92
:1031D000B4E0A6959795879577956795BA95C9F7C1
:1031E00000976105710508959B01AC010A2E0694B4
:1031F0005795479537952795BA95C9F7620F731F6D
:0C320000841F951FA01D0895F894FFCFB7
:10320C000A0141726475696E6F2D454E4332386AFE
:10321C0036302D30300000000000000000000000AF
:10322C000000A9FE0F8CA9FEEED87469692D30310F
:10323C000000240680000800000026020C001E007E
:10324C0033020A001C004202FFFFFFFFFFFF0000D9
:10325C0000002D028D01BA017A02EB01C901DD01DA
:10326C000000000047041A045705F003130400047F
:10327C00F1030D0A004E6F2072656D696E64657204
:10328C007320617420746869732074696D652E00F5
:10329C00485454502F312E3120323030204F4B0DAA
:1032AC000A436F6E74656E742D547970653A207490
:1032BC006578742F68746D6C0D0A0D0A3C68746D1A
:1032CC006C3E3C626F64793E3C68313E2530326422
:1032DC003A253032643C2F68313E3C703E25733CBD
:1032EC002F703E3C2F626F64793E3C2F68746D6C7E
:1032FC003E00436F756C646E27742066696E6420A3
:10330C0052544300525443206C6F737420706F7787
:10331C0065722C2073657474696E672074686520FF
:10332C0074696D65210054616B652041737069721D
:10333C00696E0054616B6520566974616D696E200D
:10334C00430054616B6520426C6F6F642050726552
:10335C007373757265204D656469636174696F6E12
:02336C0000005F
:00000001FF
